{
  "contractName": "Marketplace",
  "abi": [
    {
      "constant": true,
      "inputs": [],
      "name": "resourceCount",
      "outputs": [
        {
          "name": "",
          "type": "uint256"
        }
      ],
      "payable": false,
      "stateMutability": "view",
      "type": "function",
      "signature": "0x0a3fa24a"
    },
    {
      "constant": true,
      "inputs": [
        {
          "name": "",
          "type": "uint256"
        }
      ],
      "name": "resources",
      "outputs": [
        {
          "name": "id",
          "type": "uint256"
        },
        {
          "name": "name",
          "type": "string"
        },
        {
          "name": "price",
          "type": "uint256"
        },
        {
          "name": "owner",
          "type": "address"
        },
        {
          "name": "purchased",
          "type": "bool"
        },
        {
          "name": "resourceIPFSHash",
          "type": "string"
        }
      ],
      "payable": false,
      "stateMutability": "view",
      "type": "function",
      "signature": "0x244d6daa"
    },
    {
      "anonymous": false,
      "inputs": [
        {
          "indexed": false,
          "name": "id",
          "type": "uint256"
        },
        {
          "indexed": false,
          "name": "name",
          "type": "string"
        },
        {
          "indexed": false,
          "name": "price",
          "type": "uint256"
        },
        {
          "indexed": false,
          "name": "owner",
          "type": "address"
        },
        {
          "indexed": false,
          "name": "purchased",
          "type": "bool"
        },
        {
          "indexed": false,
          "name": "resourceIPFSHash",
          "type": "string"
        }
      ],
      "name": "ResourceDetailsAdded",
      "type": "event",
      "signature": "0x69f0858d6d87b927568211d5cae2210a27981b87c7652123d548c589dd900841"
    },
    {
      "anonymous": false,
      "inputs": [
        {
          "indexed": false,
          "name": "id",
          "type": "uint256"
        },
        {
          "indexed": false,
          "name": "name",
          "type": "string"
        },
        {
          "indexed": false,
          "name": "price",
          "type": "uint256"
        },
        {
          "indexed": false,
          "name": "owner",
          "type": "address"
        },
        {
          "indexed": false,
          "name": "purchased",
          "type": "bool"
        },
        {
          "indexed": false,
          "name": "resourceIPFSHash",
          "type": "string"
        }
      ],
      "name": "ResourceBought",
      "type": "event",
      "signature": "0x167353d12078752ecb476b8b0bbeec3a9d11056cc3ee6b212b6af6ca83bf7c9a"
    },
    {
      "constant": false,
      "inputs": [
        {
          "name": "_name",
          "type": "string"
        },
        {
          "name": "_price",
          "type": "uint256"
        },
        {
          "name": "_resourceIPFSHash",
          "type": "string"
        }
      ],
      "name": "addResourceDetails",
      "outputs": [],
      "payable": false,
      "stateMutability": "nonpayable",
      "type": "function",
      "signature": "0x61f7da64"
    },
    {
      "constant": false,
      "inputs": [
        {
          "name": "_id",
          "type": "uint256"
        }
      ],
      "name": "buyResource",
      "outputs": [],
      "payable": true,
      "stateMutability": "payable",
      "type": "function",
      "signature": "0x4cabd462"
    }
  ],
  "bytecode": "0x60806040526000805534801561001457600080fd5b50610fda806100246000396000f3fe608060405260043610610062576000357c0100000000000000000000000000000000000000000000000000000000900463ffffffff1680630a3fa24a14610067578063244d6daa146100925780634cabd462146101fe57806361f7da641461022c575b600080fd5b34801561007357600080fd5b5061007c610395565b6040518082815260200191505060405180910390f35b34801561009e57600080fd5b506100cb600480360360208110156100b557600080fd5b810190808035906020019092919050505061039b565b60405180878152602001806020018681526020018573ffffffffffffffffffffffffffffffffffffffff1673ffffffffffffffffffffffffffffffffffffffff1681526020018415151515815260200180602001838103835288818151815260200191508051906020019080838360005b8381101561015757808201518184015260208101905061013c565b50505050905090810190601f1680156101845780820380516001836020036101000a031916815260200191505b50838103825284818151815260200191508051906020019080838360005b838110156101bd5780820151818401526020810190506101a2565b50505050905090810190601f1680156101ea5780820380516001836020036101000a031916815260200191505b509850505050505050505060405180910390f35b61022a6004803603602081101561021457600080fd5b8101908080359060200190929190505050610534565b005b34801561023857600080fd5b506103936004803603606081101561024f57600080fd5b810190808035906020019064010000000081111561026c57600080fd5b82018360208201111561027e57600080fd5b803590602001918460018302840111640100000000831117156102a057600080fd5b91908080601f016020809104026020016040519081016040528093929190818152602001838380828437600081840152601f19601f820116905080830192505050505050509192919290803590602001909291908035906020019064010000000081111561030d57600080fd5b82018360208201111561031f57600080fd5b8035906020019184600183028401116401000000008311171561034157600080fd5b91908080601f016020809104026020016040519081016040528093929190818152602001838380828437600081840152601f19601f820116905080830192505050505050509192919290505050610b8c565b005b60005481565b6001602052806000526040600020600091509050806000015490806001018054600181600116156101000203166002900480601f01602080910402602001604051908101604052809291908181526020018280546001816001161561010002031660029004801561044d5780601f106104225761010080835404028352916020019161044d565b820191906000526020600020905b81548152906001019060200180831161043057829003601f168201915b5050505050908060020154908060030160009054906101000a900473ffffffffffffffffffffffffffffffffffffffff16908060030160149054906101000a900460ff1690806004018054600181600116156101000203166002900480601f01602080910402602001604051908101604052809291908181526020018280546001816001161561010002031660029004801561052a5780601f106104ff5761010080835404028352916020019161052a565b820191906000526020600020905b81548152906001019060200180831161050d57829003601f168201915b5050505050905086565b61053c610eba565b6001600083815260200190815260200160002060c0604051908101604052908160008201548152602001600182018054600181600116156101000203166002900480601f0160208091040260200160405190810160405280929190818152602001828054600181600116156101000203166002900480156105fe5780601f106105d3576101008083540402835291602001916105fe565b820191906000526020600020905b8154815290600101906020018083116105e157829003601f168201915b50505050508152602001600282015481526020016003820160009054906101000a900473ffffffffffffffffffffffffffffffffffffffff1673ffffffffffffffffffffffffffffffffffffffff1673ffffffffffffffffffffffffffffffffffffffff1681526020016003820160149054906101000a900460ff16151515158152602001600482018054600181600116156101000203166002900480601f01602080910402602001604051908101604052809291908181526020018280546001816001161561010002031660029004801561071b5780601f106106f05761010080835404028352916020019161071b565b820191906000526020600020905b8154815290600101906020018083116106fe57829003601f168201915b5050505050815250509050600081606001519050600082600001511180156107495750600054826000015111155b1515610798576040517f08c379a0000000000000000000000000000000000000000000000000000000008152600401808060200182810382526000815260200160200191505060405180910390fd5b816040015134101515156107ef576040517f08c379a0000000000000000000000000000000000000000000000000000000008152600401808060200182810382526000815260200160200191505060405180910390fd5b8160800151151515610844576040517f08c379a0000000000000000000000000000000000000000000000000000000008152600401808060200182810382526000815260200160200191505060405180910390fd5b3373ffffffffffffffffffffffffffffffffffffffff168173ffffffffffffffffffffffffffffffffffffffff16141515156108c3576040517f08c379a0000000000000000000000000000000000000000000000000000000008152600401808060200182810382526000815260200160200191505060405180910390fd5b33826060019073ffffffffffffffffffffffffffffffffffffffff16908173ffffffffffffffffffffffffffffffffffffffff168152505060018260800190151590811515815250508160016000858152602001908152602001600020600082015181600001556020820151816001019080519060200190610946929190610f09565b506040820151816002015560608201518160030160006101000a81548173ffffffffffffffffffffffffffffffffffffffff021916908373ffffffffffffffffffffffffffffffffffffffff16021790555060808201518160030160146101000a81548160ff02191690831515021790555060a08201518160040190805190602001906109d4929190610f09565b509050508073ffffffffffffffffffffffffffffffffffffffff166108fc349081150290604051600060405180830381858888f19350505050158015610a1e573d6000803e3d6000fd5b507f167353d12078752ecb476b8b0bbeec3a9d11056cc3ee6b212b6af6ca83bf7c9a600054836020015184604001513360018760a0015160405180878152602001806020018681526020018573ffffffffffffffffffffffffffffffffffffffff1673ffffffffffffffffffffffffffffffffffffffff1681526020018415151515815260200180602001838103835288818151815260200191508051906020019080838360005b83811015610ae1578082015181840152602081019050610ac6565b50505050905090810190601f168015610b0e5780820380516001836020036101000a031916815260200191505b50838103825284818151815260200191508051906020019080838360005b83811015610b47578082015181840152602081019050610b2c565b50505050905090810190601f168015610b745780820380516001836020036101000a031916815260200191505b509850505050505050505060405180910390a1505050565b60008351111515610be0576040517f08c379a0000000000000000000000000000000000000000000000000000000008152600401808060200182810382526000815260200160200191505060405180910390fd5b600082111515610c33576040517f08c379a0000000000000000000000000000000000000000000000000000000008152600401808060200182810382526000815260200160200191505060405180910390fd5b600080815480929190600101919050555060c06040519081016040528060005481526020018481526020018381526020013373ffffffffffffffffffffffffffffffffffffffff168152602001600015158152602001828152506001600080548152602001908152602001600020600082015181600001556020820151816001019080519060200190610cc7929190610f09565b506040820151816002015560608201518160030160006101000a81548173ffffffffffffffffffffffffffffffffffffffff021916908373ffffffffffffffffffffffffffffffffffffffff16021790555060808201518160030160146101000a81548160ff02191690831515021790555060a0820151816004019080519060200190610d55929190610f09565b509050507f69f0858d6d87b927568211d5cae2210a27981b87c7652123d548c589dd90084160005484843360008660405180878152602001806020018681526020018573ffffffffffffffffffffffffffffffffffffffff1673ffffffffffffffffffffffffffffffffffffffff1681526020018415151515815260200180602001838103835288818151815260200191508051906020019080838360005b83811015610e0f578082015181840152602081019050610df4565b50505050905090810190601f168015610e3c5780820380516001836020036101000a031916815260200191505b50838103825284818151815260200191508051906020019080838360005b83811015610e75578082015181840152602081019050610e5a565b50505050905090810190601f168015610ea25780820380516001836020036101000a031916815260200191505b509850505050505050505060405180910390a1505050565b60c060405190810160405280600081526020016060815260200160008152602001600073ffffffffffffffffffffffffffffffffffffffff168152602001600015158152602001606081525090565b828054600181600116156101000203166002900490600052602060002090601f016020900481019282601f10610f4a57805160ff1916838001178555610f78565b82800160010185558215610f78579182015b82811115610f77578251825591602001919060010190610f5c565b5b509050610f859190610f89565b5090565b610fab91905b80821115610fa7576000816000905550600101610f8f565b5090565b9056fea165627a7a72305820cda2685279da944fbdbe51d72b9c30d945095f17c1095573ad2f7d71950527f30029",
  "source": "pragma solidity ^0.5.0;\n\ncontract Marketplace {\n    uint256 public resourceCount = 0;\n    mapping(uint256 => Resource) public resources;\n\n    struct Resource {\n        uint256 id;\n        string name;\n        uint256 price;\n        address payable owner;\n        bool purchased;\n        string resourceIPFSHash;\n    }\n\n    event ResourceDetailsAdded(\n        uint256 id,\n        string name,\n        uint256 price,\n        address payable owner,\n        bool purchased,\n        string resourceIPFSHash\n    );\n\n    event ResourceBought(\n        uint256 id,\n        string name,\n        uint256 price,\n        address payable owner,\n        bool purchased,\n        string resourceIPFSHash\n    );\n\n    function addResourceDetails(\n        string memory _name,\n        uint256 _price,\n        string memory _resourceIPFSHash\n    ) public {\n        // Require a valid name\n        require(bytes(_name).length > 0, \"\");\n        // Require a valid price\n        require(_price > 0, \"\");\n        // Increment product count\n        resourceCount++;\n        // Create the product\n        resources[resourceCount] = Resource(\n            resourceCount,\n            _name,\n            _price,\n            msg.sender,\n            false,\n            _resourceIPFSHash\n        );\n        // Trigger an event\n        emit ResourceDetailsAdded(\n            resourceCount,\n            _name,\n            _price,\n            msg.sender,\n            false,\n            _resourceIPFSHash\n        );\n    }\n\n    function buyResource(uint256 _id) public payable {\n        // Fetch the product\n        Resource memory resource = resources[_id];\n        // Fetch the owner\n        address payable _seller = resource.owner;\n        // Make sure the product has a valid id\n        require(resource.id > 0 && resource.id <= resourceCount, \"\");\n        // Require that there is enough Ether in the transaction\n        require(msg.value >= resource.price, \"\");\n        // Require that the product has not been purchased already\n        require(!resource.purchased, \"\");\n        // Require that the buyer is not the seller\n        require(_seller != msg.sender, \"\");\n        // Transfer ownership to the buyer\n        resource.owner = msg.sender;\n        // Mark as purchased\n        resource.purchased = true;\n        // Update the product\n        resources[_id] = resource;\n        // Pay the seller by sending them Ether\n        address(_seller).transfer(msg.value);\n        // Trigger an event\n        emit ResourceBought(\n            resourceCount,\n            resource.name,\n            resource.price,\n            msg.sender,\n            true,\n            resource.resourceIPFSHash\n        );\n    }\n}\n",
  "sourcePath": "/home/pavansoratur/Final Year Projects/marketplace/src/contracts/Marketplace.sol",
  "compiler": {
    "name": "solc",
    "version": "0.5.0+commit.1d4f565a.Emscripten.clang"
  },
  "schemaVersion": "3.0.2",
  "updatedAt": "2020-05-10T15:39:15.490Z",
  "devdoc": {
    "methods": {}
  },
  "userdoc": {
    "methods": {}
  }
}